{
  "contractName": "Election",
  "abi": [
    {
      "inputs": [],
      "payable": false,
      "stateMutability": "nonpayable",
      "type": "constructor"
    },
    {
      "anonymous": false,
      "inputs": [
        {
          "indexed": true,
          "internalType": "uint256",
          "name": "_candidateId",
          "type": "uint256"
        }
      ],
      "name": "votedEvent",
      "type": "event"
    },
    {
      "constant": true,
      "inputs": [],
      "name": "candCount",
      "outputs": [
        {
          "internalType": "uint256",
          "name": "",
          "type": "uint256"
        }
      ],
      "payable": false,
      "stateMutability": "view",
      "type": "function"
    },
    {
      "constant": true,
      "inputs": [
        {
          "internalType": "uint256",
          "name": "",
          "type": "uint256"
        }
      ],
      "name": "candidates",
      "outputs": [
        {
          "internalType": "uint256",
          "name": "id",
          "type": "uint256"
        },
        {
          "internalType": "string",
          "name": "name",
          "type": "string"
        }
      ],
      "payable": false,
      "stateMutability": "view",
      "type": "function"
    },
    {
      "constant": true,
      "inputs": [
        {
          "internalType": "address",
          "name": "",
          "type": "address"
        }
      ],
      "name": "voters",
      "outputs": [
        {
          "internalType": "bool",
          "name": "",
          "type": "bool"
        }
      ],
      "payable": false,
      "stateMutability": "view",
      "type": "function"
    },
    {
      "constant": true,
      "inputs": [],
      "name": "votingTimeEnd",
      "outputs": [
        {
          "internalType": "int256",
          "name": "",
          "type": "int256"
        }
      ],
      "payable": false,
      "stateMutability": "view",
      "type": "function"
    },
    {
      "constant": false,
      "inputs": [
        {
          "internalType": "uint256",
          "name": "_candidateId",
          "type": "uint256"
        }
      ],
      "name": "vote",
      "outputs": [],
      "payable": false,
      "stateMutability": "nonpayable",
      "type": "function"
    },
    {
      "constant": true,
      "inputs": [],
      "name": "results",
      "outputs": [
        {
          "internalType": "uint256[]",
          "name": "",
          "type": "uint256[]"
        }
      ],
      "payable": false,
      "stateMutability": "view",
      "type": "function"
    },
    {
      "constant": true,
      "inputs": [],
      "name": "getTime",
      "outputs": [
        {
          "internalType": "int256",
          "name": "",
          "type": "int256"
        }
      ],
      "payable": false,
      "stateMutability": "view",
      "type": "function"
    }
  ],
  "bytecode": "0x608060405234801561001057600080fd5b5060006001819055506201518042016000819055506100696040518060400160405280600a81526020017f59616972204c617069640000000000000000000000000000000000000000000081525061013a60201b60201c565b6100ad6040518060400160405280601181526020017f42656e6a616d696e204e6574616e79617500000000000000000000000000000081525061013a60201b60201c565b6100f16040518060400160405280600d81526020017f4e616674616c692042656e65740000000000000000000000000000000000000081525061013a60201b60201c565b6101356040518060400160405280600a81526020017f42656e692047616e747a0000000000000000000000000000000000000000000081525061013a60201b60201c565b610265565b604051806040016040528060015481526020018281525060036000600154815260200190815260200160002060008201518160000155602082015181600101908051906020019061018c9291906101c0565b5090505060006002600060015481526020019081526020016000208190555060016000815480929190600101919050555050565b828054600181600116156101000203166002900490600052602060002090601f016020900481019282601f1061020157805160ff191683800117855561022f565b8280016001018555821561022f579182015b8281111561022e578251825591602001919060010190610213565b5b50905061023c9190610240565b5090565b61026291905b8082111561025e576000816000905550600101610246565b5090565b90565b610532806102746000396000f3fe608060405234801561001057600080fd5b506004361061007d5760003560e01c8063705e1c861161005b578063705e1c861461017c578063a3ec138d1461019a578063a48bdb7c146101f6578063e02b48e4146102555761007d565b80630121b93f146100825780633477ee2e146100b0578063557ed1ba1461015e575b600080fd5b6100ae6004803603602081101561009857600080fd5b8101908080359060200190929190505050610273565b005b6100dc600480360360208110156100c657600080fd5b8101908080359060200190929190505050610384565b6040518083815260200180602001828103825283818151815260200191508051906020019080838360005b83811015610122578082015181840152602081019050610107565b50505050905090810190601f16801561014f5780820380516001836020036101000a031916815260200191505b50935050505060405180910390f35b610166610440565b6040518082815260200191505060405180910390f35b610184610449565b6040518082815260200191505060405180910390f35b6101dc600480360360208110156101b057600080fd5b81019080803573ffffffffffffffffffffffffffffffffffffffff16906020019092919050505061044f565b604051808215151515815260200191505060405180910390f35b6101fe61046f565b6040518080602001828103825283818151815260200191508051906020019060200280838360005b83811015610241578082015181840152602081019050610226565b505050509050019250505060405180910390f35b61025d6104f7565b6040518082815260200191505060405180910390f35b600460003373ffffffffffffffffffffffffffffffffffffffff1673ffffffffffffffffffffffffffffffffffffffff16815260200190815260200160002060009054906101000a900460ff16156102ca57600080fd5b6000544213156102d957600080fd5b6001600460003373ffffffffffffffffffffffffffffffffffffffff1673ffffffffffffffffffffffffffffffffffffffff16815260200190815260200160002060006101000a81548160ff0219169083151502179055506002600082815260200190815260200160002060008154809291906001019190505550807ffff3c900d938d21d0990d786e819f29b8d05c1ef587b462b939609625b684b1660405160405180910390a250565b6003602052806000526040600020600091509050806000015490806001018054600181600116156101000203166002900480601f0160208091040260200160405190810160405280929190818152602001828054600181600116156101000203166002900480156104365780601f1061040b57610100808354040283529160200191610436565b820191906000526020600020905b81548152906001019060200180831161041957829003601f168201915b5050505050905082565b60008054905090565b60005481565b60046020528060005260406000206000915054906101000a900460ff1681565b6060806001546040519080825280602002602001820160405280156104a35781602001602082028038833980820191505090505b50905060008090505b6001548110156104ef5760026000828152602001908152602001600020548282815181106104d657fe5b60200260200101818152505080806001019150506104ac565b508091505090565b6001548156fea265627a7a723158206f70a08ab87924e987cb3bc60cd8d3c7b8acbc7b65c62d30b60b15bbf66f343764736f6c63430005100032",
  "source": "pragma solidity ^0.5.0;\r\n\r\ncontract Election {\r\n\t\r\n\tstruct Candidate {\r\n        uint id;\r\n        string name;        \r\n    }\r\n    int public votingTimeEnd;\r\n    uint public candCount;\r\n\r\n    mapping(uint => uint) private voteCount;\r\n    mapping(uint => Candidate) public candidates;\r\n    mapping(address => bool) public voters;\r\n\r\n    event votedEvent (\r\n        uint indexed _candidateId\r\n    );\r\n\r\n\t constructor() public {\r\n        candCount = 0;\r\n        votingTimeEnd = int(block.timestamp) + 86400;\r\n        addCandidate(\"Yair Lapid\");\r\n        addCandidate(\"Benjamin Netanyau\");\r\n        addCandidate(\"Naftali Benet\");\r\n        addCandidate(\"Beni Gantz\");\r\n    }\r\n\r\n    function addCandidate (string memory _name) private {\r\n        candidates[candCount] = Candidate(candCount, _name);\r\n        voteCount[candCount] = 0; \r\n        candCount ++;\r\n    }\r\n\r\n    function vote (uint _candidateId) public {\r\n        // require that they haven't voted before\r\n        require(!voters[msg.sender]);\r\n\r\n        require(int(block.timestamp) <= votingTimeEnd);\r\n        \r\n        // record that voter has voted\r\n        voters[msg.sender] = true;\r\n\r\n        // update candidate vote Count\r\n        voteCount[_candidateId] ++;\r\n        \r\n        // trigger voted event\r\n        emit votedEvent(_candidateId);\r\n    }\r\n\r\n    function results() public view returns (uint[] memory){\r\n        uint[] memory ret = new uint[](candCount);\r\n        for (uint i = 0; i < candCount ; i++) {\r\n            ret[i] = voteCount[i];\r\n        }\r\n        return ret;\r\n    }\r\n\r\n    function getTime() public view returns (int){\r\n        return votingTimeEnd;\r\n    }\r\n}",
  "sourcePath": "C:/Users/liels/OneDrive/מסמכים/GitHub/Election_BlockChain/contracts/Election.sol",
  "compiler": {
    "name": "solc",
    "version": "0.5.16+commit.9c3226ce.Emscripten.clang"
  },
  "schemaVersion": "3.3.4",
  "updatedAt": "2021-02-20T15:26:41.240Z",
  "networkType": "ethereum",
  "devdoc": {
    "methods": {}
  },
  "userdoc": {
    "methods": {}
  }
}